:020000041000EA
:10000000002008205D0100101B0100101D010010E0
:100010001101001011010010110100101101001058
:100020001901001019010010190100101F01001022
:10003000110100101901001021010010230100100E
:100040001101001011010010110100101101001028
:100050001101001011010010110100101101001018
:100060001101001011010010110100101101001008
:1000700011010010110100101101001011010010F8
:1000800011010010110100101101001011010010E8
:1000900011010010110100101101001011010010D8
:1000A00011010010110100101101001011010010C8
:1000B00011010010110100101101001011010010B8
:1000C00011010010110100101101001011010010A8
:1000D0001101001011010010110100101101001098
:1000E0001101001011010010110100101101001088
:1000F0001101001011010010110100101101001078
:100100001101001011010010110100101101001067
:10011000EFF30580103800BE00BE00BE00BE00BE7A
:1001200000BE00BEF2EB88719C150010B8150010DF
:10013000A001001090A31AE7D3DEFFFF42012110B7
:10014000FF010000C4150000793512AB4FF000002C
:100150001E49086006C881F3088810474FF05040D8
:10016000006810B14FF00000F2E70DA40ECC00299A
:1001700002D000F012F8F9E71549164A002000E015
:1001800001C19142FCD11449884714498847144958
:10019000884700BEFDE701C901C29A42FBD3704700
:1001A000B81500101001002054020020FC160010A9
:1001B0000000082000000820FC1600100010082095
:1001C00000100820000000007047000008ED00E06B
:1001D000540200206C040020891000103502001029
:1001E00081100010F8B500BF064B0749C91A8910E5
:1001F00048BF0131491003D0044B0BB101481847E7
:10020000704700BF5402002054020020000000008C
:1002100008B5054B1BB105490548AFF30080BDE8A3
:100220000840FFF7E1BF00BF0000000030040020DD
:10023000B414001008B5192000F016F84FF00105AD
:10024000192345EC44304FF00006192445EC40409A
:100250004FF4FA7000F03AFC46EC40404FF4FA706C
:1002600000F034FCF1E700BF30B44FF0000343EC82
:10027000440043EC400005254FF480740B4BC20052
:1002800053F8201003EB800081F0400102F180431D
:1002900003F5203301F0C00200F5805100F5405015
:1002A0000A605D60046030BC704700BF048003409A
:1002B0000FB400B583B0049C074801F00BF83CB1C3
:1002C00005A92046019100F0C1FE044801F002F8A2
:1002D000012000F0D3FE00BFB4140010C4140010BD
:1002E00070B58646EFF3108572B6124CD4E8CF6F26
:1002F0000120002EFAD1C4E8460F002EF6D1BFF33C
:100300005F8F4FF0010CC80801F007030CFA03F3EC
:100310001EF800C01CEA030608D14CEA030C0EF8D4
:1003200000C0C4E88F6F85F3108870BD1046FFF7DA
:10033000BFFF00BFE3030020044A1078431CDBB278
:10034000182B28BF10231370704700BF3002002005
:100350004FF0E022936843F000539360704700BF72
:100360000021044B03F12002C3E88F1F01339342A5
:10037000FAD17047D80300204FF0E0234FF08032CD
:10038000C3F80024C3F80424C3F80824C3F80C24D9
:10039000C3F81024C3F81424C3F81824C3F81C2489
:1003A000C3F82024C3F82424C3F82824C3F82C2439
:1003B000C3F8302462B67047012300F01F02934057
:1003C000400941B1800000F1604000F56140C0F893
:1003D000803103607047024A203042F82030704775
:1003E00000E100E0F8B50D46EFF3108772B6124E4B
:1003F000D6E8CF2F0123002AFAD1C6E8423F002ACF
:10040000F6D1BFF35F8F0D4B00F110049B680C4ACF
:1004100053F82430934203D0994201D000F0FEFCFF
:10042000064B9B6843F82450BFF35F8F0023C6E858
:100430008F3F87F31088F8BDE103002000ED00E056
:1004400011010010014B0B4403607047D8030020DA
:1004500070B5104C104DAC420ED2FF26236863B12C
:10046000FFF76AFF01462046FFF7ECFFA680BFF3C7
:100470005F8F0834AC42F1D370BDFFF75DFF0146DA
:100480002046FFF7DFFF2671BFF35F8F0834AC42D1
:10049000E4D370BD4C020020540200200D4B1A68BA
:1004A000EFF3108172B6D2E8CFCF0120BCF1000F7C
:1004B000F9D1C2E84C0FBCF1000FF4D1BFF35F8F4C
:1004C00000221B68C3E88F2F81F3108840BF0020F3
:1004D00000217047680400202DE9F04F2DED028BBC
:1004E00085B0EFF30583DBB2103B9A0818BF0122F9
:1004F0004FF0010103F0030018BFAF4DAF4B08BF31
:10050000AF4D00EB820253F8226001FA00FB05F5C3
:1005100041539FEDA78B0190C3F804B02EE0B38840
:10052000180440F19280B379002B40F0DC80B6F9DA
:1005300008100029C0F21D81736901EB410103EB32
:10054000C103D3E90247B7F1FF3F08BFB4F1FF3F52
:100550000DD0019B05EB8301AB6A0A69D21AE31A3D
:10056000934203D32B6A13EA0B0F00D10C61284688
:1005700000F032FBA042B941C0F2FB80B6F908306E
:10058000C5F83CB0002B0093C9DBD6F8149003EB00
:10059000430A284609EBCA07D7E9024800F01CFBCA
:1005A000A04271EB0801BADBB8F1000FC0F2C380C2
:1005B000D7E90431834A934200F0ED807A88B6F996
:1005C000080092B242EA0040984702460B4652EABF
:1005D000030100F0B080002B80F2D180B4EB020E5A
:1005E00068EB030839F93A30C7E902E8002B96DBDB
:1005F000716903EB430201EBC202D2E90270BE450E
:1006000078EB000C4FEA430289DBB4462CF8083F34
:100610000BE031F93230A446002B0DDB03EB430035
:1006200001EBC0005A00D0E90270BE451A4478EBD5
:10063000000001EBC204ECDA29F83A30009BACF878
:100640000030B38818043FF56EAF3369EFF31082C2
:1006500072B6D3E8CF0F01210028FAD1C3E8401FBA
:100660000028F6D1BFF35F8F4FF6FF74B0880023E8
:10067000316900B2B480C1E88F3F82F3108898429C
:10068000FFF651AF0746A946746906F1080807EB63
:10069000470E04EBCE03D3E90250B6F90830C44646
:1006A000002B13DBB246009704E034F93630944651
:1006B000002B09DB03EB430604EBC602D2E902710F
:1006C000BD4270EB0101F0DA5646009FACF80070B5
:1006D00034F93E7024F83E30002FD8DAB3794D4615
:1006E000002B3FF424AF0023B371B6F9083006F1B4
:1006F0000808591C3DD01946776903E080465A1C0A
:100700003FF417AF03EB430207EBC200B0F802C09F
:100710001C461CF4004F9E4637F93230EED08C4216
:1007200080ED028B05D0A8F80030318927F832100F
:1007300034817146E3E739F83A3033813369EFF3B6
:10074000108272B6D3E8CF0F01210028FAD1C3E896
:10075000401F0028F6D1BFF35F8F7388316929F8F5
:100760003A30009B73800023C1E88F3F82F31088EA
:10077000D5E640BF05B0BDEC028BBDE8F08F284642
:10078000CDE9022300F028FA029A039B10EB020E37
:1007900043EB010826E708460B69029198470028B9
:1007A000C9D00299D1E9002311E700BFAFF300805F
:1007B000FFFFFFFFFFFFFFFF00800B40480400200A
:1007C00000000B40D90400102DE9F84F364C256984
:1007D0002DB1BDE8F84F0A213448FFF733BEDFF8EA
:1007E000E4800321404600F0E5F90326C4F80C80BC
:1007F000FFF7A2FD4FF0504C2D4B267003442361B0
:10080000DCF800300F216370636961801D834FF055
:100810000405A3F878504FF00505A3F890504FF069
:100820000605A3F8A8504FF007050E214FF6FF72FA
:1008300008274FF00A0EA3F8C0504FF001094FF0FF
:100840000C0C4FF0020B4FF0090A0D204FF00B0576
:10085000A3F868111749A280A3F808E1A160A3F8E2
:1008600048B0A3F8F0A0A3F82051A3F838C1A3F82A
:100870005001A3F83090A3F86060A3F8D8701A80F4
:100880000D4B3046C8F820700C49DC60FFF7AAFD1C
:1008900049463046FFF790FD094B0A211F64034883
:1008A000BDE8F84FFFF7CEBD3402002068040020F9
:1008B000D8030020FFFF100048040020D9040010D6
:1008C00000200B4000000B400146F0B50069EFF33B
:1008D000108772B6D0E8CF5F0124002DFAD1C0E8AE
:1008E000454F002DF6D1BFF35F8FB1F902E04C699F
:1008F0000EEB4E0CBEF1000F4FEACC0504EBCC0C16
:100900003DDB605B002648800869C0E88F6F87F395
:100910001088BCF80200CCE902230130C0F30E00BD
:10092000012838BF0120059BACF80200CCF810303C
:10093000069B40EA0E40CCF814300B69EFF31082AE
:1009400072B6D3E8CFCF0127BCF1000FF9D1C3E8CD
:100950004C7FBCF1000FF4D1BFF35F8F8B886353E2
:10096000A1F804E00B69C3E88F6F82F310880122BD
:10097000CB68097803F501538A405A60F0BD002323
:100980000A69C2E88F3F87F310884FF0FF30F0BD4F
:1009900003464089B0EB214F37DD58690A1402EB5A
:1009A000420210B500EBC2001C69EFF3108C72B666
:1009B000D4E8CFEF0122BEF1000FF9D1C4E84E2FE9
:1009C000BEF1000FF4D1BFF35F8F428889B292B2BB
:1009D0008A4207D000221B69C3E88F2F8CF310884E
:1009E000002010BD42F4004242800121002218691B
:1009F0009971C0E88F2F8CF310881C78DA6808464C
:100A000002F50153A140596010BD0020704700BF9E
:100A10002DE9F041861F41F1FF35B04271EB05032E
:100A200038BF002682B038BF354604460F4600F076
:100A3000DBF8301A65EB0103012873F1000306DAD5
:100A40002046394602B0BDE8F04100F0D7B800F0CA
:100A5000CBF8864265EB010100290ADB0021174B28
:100A60003246009316482B460191FFF72DFF0028D0
:100A7000E6DB4FF0000C1348134A436A9D4204D84A
:100A8000816AB142DCD29D42DAD11368EFF3108162
:100A900072B6D3E8CF8F5FF0010EB8F1000FF8D136
:100AA000C3E848EFB8F1000FF3D1BFF35F8F1368CD
:100AB000C3E88FCF81F3108820BFDEE79D040010CC
:100AC0003402002000000B406804002010B50446EA
:100AD00000F08AF84FF47A734FF0FF3C6FF0004259
:100AE000E4FB0301BDE81040844572EB01033CBF09
:100AF00060461146FFF78CBF2DE9F04306460D46D0
:100B000083B0EFF30584E4B23CB1274B586AA842A6
:100B10001CD2002003B0BDE8F083244FD7F80C901E
:100B200097F80080484600F057F808F1040859F893
:100B300028301B1A301A65EB0101984271F100014F
:100B400011DB20BF184B586AA842E2D39B6AB3421C
:100B500003D3012003B0BDE8F083401B18BF012080
:100B600003B0BDE8F08300F03FF8864265EB010179
:100B70000029CADB0E4B3846CDE9003432462B46FD
:100B8000FFF7A2FE011EC0DD074B5A6AAA4208D336
:100B90009B6AB34203D30548FFF7FAFEB5E7AA42C2
:100BA000F9D120BFF7E700BF00000B40340200205E
:100BB0009D04001010B4054B054C064AA04214BF1A
:100BC0001846581C5DF8044BFFF78ABBF803002059
:100BD00000800B40C81400100346416A0A46986A18
:100BE000596A8A42FAD17047034B596A0A46986A91
:100BF000596A9142FAD1704700000B40074A536A84
:100C00009942FCD8994207D1044B02E05A6A9142BA
:100C100002D19A6A8242F9D3704700BF00000B40AC
:100C200000EB400C4FEA8C0C0CF1804C0CF5803C36
:100C3000F0B51646DCF80420051FB2F5803F38BF3A
:100C40004FF48032EDB238BFCCF80420012D2AD900
:100C50004FF40067254C0CF54052176054F82020E3
:100C6000B2B9DCF80020012D82EA461202F0E0025F
:100C70000CF5805632602AD94FF4006144F82030D8
:100C80004FF480330CF500521160CCF80430F0BD05
:100C90006769B7FBF2FE0EF1010E0EEB4E0EBEF1D0
:100CA000030EFCD2DDE70129D2D103240CF540521A
:100CB0001460DCF80820D207FBD5DCF800200B4CD0
:100CC00082EA461202F0E0020CF580563260012200
:100CD000DCF800504D4005F00305356002FA01F1E3
:100CE000DCF808200A42FBD0C6E700BFFC03002066
:100CF000014B53F820007047FC03002070B4039DA3
:100D000004682D0345EA03451B4B002CB3FBF1F3AC
:100D1000B2FBF3F61FDB194A194B904214BF4FF494
:100D200080424FF40042174C1A6003F580531A605A
:100D3000A36832EA0303FBD1212200F540530433B8
:100D4000016086601A600268002AFCDA0822C56029
:100D50001A6070BC7047036803F03F038B42DAD11E
:100D60008368C3F30B03B342D5D1C36803F4EE2306
:100D7000AB42D0D1EDE700BF001BB70000800540BB
:100D80000020024000000240012300EB40008000F0
:100D900000F1804000F5841041600360704700BF9F
:100DA0000023DB8A002242E800F2520201D4102123
:100DB00018470421184700BF034AD2F82838002BEF
:100DC000FBD0BFF35F8F704700000E400021044B43
:100DD000044ABFF35F8F43F8041B9342F9D1704775
:100DE0000C080E402C080E4010B44FF48D704FF4D8
:100DF0002A64064A064B07491460D060196053689C
:100E0000002BFCDA5DF8044B704700BF0080044003
:100E100000A0044000B0FA00704700BF08B50148C8
:100E2000FFF746FAEC14001038B5054C054DAC42FE
:100E300004D254F8043B9847AC42FAD338BD00BF03
:100E400070140010B014001010B40748074C084B81
:100E5000084A094904601A608B6832EA0303FBD12F
:100E60005DF8044B704700BF002002407F3BEFEF6E
:100E700000300240F6FFF30300000240044BDB6C3D
:100E8000B3F5004F03D14FF48022024BDA64704770
:100E900000001150002011504FF0E022044BD2F816
:100EA000881D0B43C2F8883D10EE3004704700BF28
:100EB000030330006FF06041044B054A19609368EA
:100EC000DB4333F06043FAD1704700BF003002408B
:100ED0000000024010B545F25320FFF761FFBDE866
:100EE000104003460420184710B545F25320FFF781
:100EF00057FFBDE81040034601201847FFF730BAFE
:100F000070B51449144C154D641AA610442E32467F
:100F100028BF44222846920000F0FAF9B4F5867FF3
:100F200013D80F4AC6F1440112D02B19480803EB1D
:100F3000C000C3E9002208338342FAD1CB0704D5AD
:100F400021F00103334445F82320064B9D6070BD1A
:100F50004323F8E7000000101001001000000020FB
:100F60001101001000ED00E0002370B52B4C82B0A1
:100F7000C4F88430FFF738FF0122294BDA63636C31
:100F8000012BFCD10321264A244B11639C6B012CBD
:100F9000FCD10226052521460523224A2248009637
:100FA000FFF7ACFE21462B46204A21480095FFF76B
:100FB000A5FE0022042031461E4BFFF731FE2146DC
:100FC000284600221C4BFFF72BFE0022082011466A
:100FD0001A4BFFF725FE002209201146174BFFF799
:100FE0001FFE002206201146134BFFF719FE0022B8
:100FF000114B07201146FFF713FE0420FFF778FE80
:1010000000240F4BA3FB0035AD0CE0B229460134A0
:10101000FFF7BAFE062CF8D102B070BD0000014007
:1010200000300140002F685900000540008C8647C1
:1010300000800540001BB70080D1F008006CDC0286
:1010400083DE1B4300B9704700F002B910B5094BAD
:1010500084B01C684CB1034600914FF0FF3203A9E5
:101060000548A047012004B010BD00F033F9204628
:1010700004B010BD2C0400204510001000BEFDE798
:1010800008B5FFF7FBFF00BF38B5064C064DFFF76C
:10109000CBFEAC4204D254F8043B9847AC42FAD39E
:1010A00038BD00BFB0140010B41400100368084627
:1010B00011461847437D2DE9F04781460F461646F5
:1010C000002B43D0002A3BDD037D00204D1E01464E
:1010D00015F8012FDFF884800A2A01F101040ED0EF
:1010E000A6421CD02B782146A3F10D03B3FA83F35B
:1010F00015F8012F5B090A2A01F10104F0D1002B38
:10110000EED18142A1EB000138441BDC02214046B4
:10111000D9F800309847A64208D02046E2E7864238
:1011200004DD311AD9F8003038449847374417F8AD
:10113000013CA3F10D03B3FA83F35B0989F8143082
:10114000BDE8F087D9F800309847DFE73846D9F88E
:1011500000301146BDE8F047184700BF9015001059
:101160002DE9F04782B00D46924699460746FFF7B3
:101170003BFD4FF0FF366FF000442F4A821841F1DB
:101180000003964274EB03013CBF324623462B48D2
:1011900000F06AF96B1C804603D1384600F02EF946
:1011A0000546274B274E1C68274BB9F1000F18BF87
:1011B0001E46B4B1BAF1000F1AD1DFF8909001E0E9
:1011C000246974B12368002BFAD0D9F800300BB130
:1011D0009C42F5D120462A463946B0472469002C66
:1011E000F0D1B8F1000F1FD1284602B0BDE8F0875A
:1011F0004FF00A0ADFF8549002E02469002CF0D086
:101200002368002BF9D0D9F800300BB1A342F4D1F8
:101210002A4639462046B047012220460DF10701F3
:101220008DF807A0B047E8E7044800F019F9284610
:1012300002B0BDE8F08700BF40420F004C02002022
:1012400024040020AD100010B51000102804002068
:10125000F0B583B006468DF80700FFF7C5FC4FF0E8
:10126000FF356FF00044174A821841F100039542A0
:1012700074EB03013CBF23462A46134800F0F4F800
:10128000124B07461C689CB1114D01E024697CB1EA
:101290002368002BFAD02B680BB19C42F6D1204674
:1012A00001220DF10701FFF705FF2469002CEFD1A2
:1012B00017B9304603B0F0BD034800F0D1F830460E
:1012C00003B0F0BD40420F004C0200202404002077
:1012D0002804002038B5044600F090F801230546A4
:1012E0001A4620462946FFF73BFF084B1C682CB1E5
:1012F00063682BB198472469002CF9D1284638BD82
:101300002469002CF4D1284638BD00BF24040020F5
:10131000844641EA000313F0030349D1403A23D342
:101320000B6803604B6843608B688360CB68C36065
:101330000B6903614B6943618B698361CB69C3614D
:101340000B6A03624B6A43628B6A8362CB6AC36235
:101350000B6B03634B6B43638B6B8363CB6BC3631D
:1013600040304031403ADBD230320BD30B6803605F
:101370004B6843608B688360CB68C360103010316A
:10138000103AF3D20C3205D351F8043B40F8043B39
:10139000043AF9D2043208D0D2071CBF11F8013B3D
:1013A00000F8013B01D30B8803806046704700BF03
:1013B000082A13D38B07B1D010F00303AED0C3F1CA
:1013C0000403D21ADB071CBF11F8013B00F8013BF4
:1013D000A4D331F8023B20F8023B9FE7043AD9D36B
:1013E000013A11F8013B00F8013BF9D20B78037088
:1013F0004B7843708B7883706046704720F0030110
:1014000010F00300C0F1000051F8043B00F1040C9F
:101410004FEACC0C6FF000021CBF22FA0CF213430F
:101420004FF0010C4CEA0C2C4CEA0C4CA3EB0C02D8
:1014300022EA030212EACC1204BF51F8043B043042
:10144000F4D0C2F1000102EA0102B2FA82F2C2F162
:101450001F0200EBD2007047F8B500BF000000008B
:101460005FF800F0ED0100205FF800F0810100203E
:10147000D50E0010490E00107D0E0010690F0010EF
:10148000B50E0010CD0D0010FD0E0010B90D0010AE
:1014900051040010010F0010C9070010190E0010B0
:1014A000E90E0010990E001051030010790300108E
:0414B0001102001015
:1014B4000A2A2A2A2050414E4943202A2A2A0A006D
:1014C4000A000000486172647761726520616C6192
:1014D400726D20256420616C726561647920636C8F
:1014E40061696D6564000000486172642061737312
:1014F4006572740052656C6561736500626F6F7428
:10150400325F77323571303830000000322E322E9F
:10151400300000007069636F320000007270323373
:101524003530615F626C696E6B000000417072203F
:10153400203420323032360006005250D3F0754247
:10154400F814001006005250E182887F0015001044
:1015540006005250ABB360531015001006005250F1
:10156400BBFF3CB61815001006005250861C03023F
:1015740020150010060052505422A29D3015001070
:1015840005005250DE65F468101700100D0A0000C3
:081594007CFDFF7F0100000057
:10159C003C15001048150010541500106015001073
:0C15AC006C15001078150010841500105C
:1015B8004FF050412DE9F0410027044616461D46DC
:1015C800D1F8008009E02368C3E88F7F8CF3108886
:1015D8003046294600F078F8F0B92168EFF3108C0E
:1015E80072B6D1E8CF2F0123002AFAD1C1E8423FD1
:1015F800002AF6D1BFF35F8F94F904E0BEF1000F23
:10160800E1DA0023226884F80480C2E88F3F8CF373
:1016180010880120BDE8F0810020BDE8F08100BFFE
:1016280030B501460468EFF3108C72B6D4E8CFEFFA
:101638000125BEF1000FF9D1C4E84E5FBEF1000FDD
:10164800F4D1BFF35F8F90F90440002C11DB002127
:101658000568C5E88F1F8CF310884FF0504C9CF933
:1016680000C0A44501D1084630BDBDE83040FFF7B1
:101678009FBF4FF05040006800230A680871C2E815
:101688008F3F8CF31088012030BD00BF0368EFF353
:10169800108272B6D3E8CFCF0121BCF1000FF9D187
:1016A800C3E84C1FBCF1000FF4D1BFF35F8F4FF0BC
:1016B800FF0C0023016880F804C0C1E88F3F82F363
:1016C800108840BF704700BF5FF800F0F90A0010AB
:1016D80010000000000000000000000000000000F2
:1016E8000000000000000000580200200000000078
:0416F80000000000EE
:1016FC00D3DEFFFFFE010000FF0100003CEAFFFF0C
:04170C00793512AB6E
:040000051000014D99
:00000001FF
